:100000000C9472000C9489000C9489000C94890063
:100010000C9489000C9489000C9489000C9489003C
:100020000C9489000C9489000C9489000C9489002C
:100030000C9489000C9489000C9489000C9489001C
:100040000C9489000C9489000C9489000C9489000C
:100050000C9489000C9489000C9489000C948900FC
:100060000C9489000C9489000C9489000C948900EC
:100070000C9489000C9489000C9489000C948900DC
:100080000C9489000C9489000C9489000C948900CC
:100090000C9489000C9489000C9489000C948900BC
:1000A0000C9489000C9489000C9489000C948900AC
:1000B0000C9489000C9489000C9489000C9489009C
:1000C0000C9489000C9489000C9489000C9489008C
:1000D0000C9489000C9489000C9489000C9489007C
:1000E0000C94890011241FBECFEFD1E2DEBFCDBF3B
:1000F00012E0A0E0B2E0E2E3F3E000E00BBF02C0F8
:1001000007900D92A030B107D9F70E9423010C94FB
:1001100097010C940000DF93CF9300D000D00F9292
:10012000CDB7DEB783E090E09A83898389819A8195
:100130009D838C831B828C819D81009711F091E0BF
:100140009B838C819D8101979A8389838B818823EE
:1001500069F70F900F900F900F900F90CF91DF9154
:100160000895DF93CF9300D000D00F92CDB7DEB7C4
:1001700084E690E09A83898302C00E948B00898183
:100180009A819D838C831B828C819D81009711F0C5
:1001900091E09B838C819D8101979A8389838B81D8
:1001A000882359F70F900F900F900F900F90CF91D9
:1001B000DF910895DF93CF9300D0CDB7DEB71A82D9
:1001C000AAE2B0E0EAE2F0E0808181608C93E3E2B1
:1001D000F0E08081882F90E0847090700097B9F7EC
:1001E0000E948B00ABE2B0E0EBE2F0E08081816046
:1001F0008C9305C00E948B008A818F5F8A83E3E223
:10020000F0E08081882F90E084709070009791F3E7
:10021000ABE2B0E0EBE2F0E080818E7F8C9381E096
:1002200089838A81853610F083E08983A5E2B0E076
:10023000E5E2F0E0808180688C9389810F900F90D7
:10024000CF91DF910895DF93CF9300D0CDB7DEB784
:10025000A1E2B0E0E1E2F0E080818A6A8C93A2E260
:10026000B0E0E2E2F0E0808185758C93A7E2B0E037
:10027000E7E2F0E0808184678C93A8E2B0E0E8E2F6
:10028000F0E080818B788C93A4E2B0E0E4E2F0E0CF
:100290008081837E8C93A5E2B0E0E5E2F0E080818E
:1002A0008C618C930E94DA00282F30E03A832983F6
:1002B00089819A818230910591F029813A81233098
:1002C0003105A9F089819A8181309105C1F4A2E2BA
:1002D000B0E0E2E2F0E0808182608C9317C0A2E29D
:1002E000B0E0E2E2F0E0808180628C930FC0A8E28F
:1002F000B0E0E8E2F0E0808180648C9307C0A8E27F
:10030000B0E0E8E2F0E0808184608C930E94B1006C
:10031000A2E2B0E0E2E2F0E080818D7D8C93A8E281
:10032000B0E0E8E2F0E080818B7B8C93BBCFF89467
:02033000FFCFFD
:00000001FF
